:100000000C947F010C94B0010C94B0010C94B001DD
:100010000C94B0010C94B0010C94B0010C94B0019C
:100020000C94B0010C94B0010C94B0010C94B0018C
:100030000C94B0010C94B0010C94B0010C94B0017C
:100040000C94B0010C94B0010C94B0010C94B0016C
:100050000C94B0010C94B0010C94B0010C941821D4
:100060000C94B0010C948C210C9462210C94B0017E
:100070000C94B0010C94B0010C94B0010C94B0013C
:100080000C94B0010C94B0010C94B0010C94B0012C
:100090000C94B0010C94B0010C94B0010C94C221EA
:1000A0000C94B0010C94B0010C94B0010C94B0010C
:1000B0000C94B0010C94B0010C94B0010C94B001FC
:1000C0000C94B0010C94B0010C94B0010C94B001EC
:1000D0000C94B0010C94B0010C94B0010C94B001DC
:1000E0000C94B0010C9463020C94B50D0C94C803ED
:1000F0000C9455020C94DB0E0C9403150C944D02D9
:100100000C945B020C945F020C942D170C949703D3
:100110000C94BA030C9432020C943A020C94EE0E36
:100120000C949E040C9463150C94E4040C94D21764
:100130000C94A40D0C9451020C94220F0C944003C7
:100140000C9468020C94640E0C94CE040C94320A45
:100150000C94F50E0C9469020C9443020C943D022D
:100160000C94A6030C9484090C9434030C94E6229A
:100170000C94020C0C9436020C94CB0E0C94BE041E
:100180000C9400040C9438100C9428020C94BE17A4
:100190000C942E020C9447020C946A030C94CC0E1F
:1001A0000C944D040C946D020C94AB0BCDCCCC3D57
:1001B0000AD7233C17B7D13877CC2B329595E62454
:1001C0001FB14F0A000020410000C84200401C46F9
:1001D00020BCBE4CCA1B0E5AAEC59D740000200048
:1001E0002300260029002C002F003200000100000F
:1001F00003010601090100002100240027002A0054
:100200002D003000330001010000040107010A0144
:1002100000002200250028002B002E0031003400B1
:1002200002010000050108010B0105050505070590
:1002300008080808020202020A0A08080404040462
:10024000010101010101010103030303030303038E
:10025000040707070C0C0C0C0C0C0C0C020202021D
:1002600006060606060606060B0B0B0B0B0B0B0B06
:1002700001021020200808102040102040800201B8
:10028000020108040201010204081020408080409D
:10029000201008040201800402018040201008049C
:1002A000020108040201010204081020408001023A
:1002B00004081020408000000A0B02090C0D0E08F3
:1002C000070304010000000000000000000000001F
:1002D000000000000000000000000000000000001E
:1002E00000001211100000000000000000000000DB
:1002F000000000000000000000000000E6221124C1
:100300001FBECFEFD1E2DEBFCDBF00E00CBF26E0C5
:10031000A8EDB2E001C01D92A83DB207E1F712E0DE
:10032000A0E0B2E0E2E3F4E500E00BBF02C007901A
:100330000D92A83DB107D9F711E0CFE7D1E000E079
:1003400006C021970109802FFE010E945827CE3751
:10035000D10780E00807A9F70E9463230C94172AAD
:100360000C940000CF92DF92EF92FF92FC01892B58
:1003700041F084818F778830D1F130F4863009F4F0
:1003800043C090E080E01EC08A3009F18C30C9F78C
:10039000C080D180E280F38020E030E040E85FE37D
:1003A000C701B6010E94E42587FD31C020E030E09E
:1003B00040E85FE3C701B6010E94FC271816A4F4C9
:1003C00082E090E0FF90EF90DF90CF9008958081E1
:1003D0009181A281B381181619061A061B06BCF476
:1003E0000197A105B10561F781E090E0EBCF808135
:1003F0009181A281B3810097A105B10541F00297D7
:10040000A105B10588F3DCCF80818111EDCF84E0B7
:1004100090E0D8CF8150823108F05AC0E82FF0E048
:100420008827EA5EFD4F8F4F0C94582736023A0218
:1004300028022E02320268023D02430247024D02A8
:10044000510255025B025F026802630269026D029B
:10045000809180008F778093800008958091800044
:100460008F7DF9CF80918000877FF5CF84B58F771E
:1004700084BD089584B58F7DFBCF8091B0008F77C8
:100480008093B00008958091B0008F7DF9CF809166
:1004900090008F77809390000895809190008F7DD9
:1004A000F9CF80919000877FF5CF8091A0008F7762
:1004B0008093A00008958091A0008F7DF9CF809156
:1004C000A000877FF5CF809120018F778093200156
:1004D0000895809120018F7DF9CF80912001877F41
:1004E000F5CF1F93CF93DF93282F30E0F901EA5423
:1004F000FD4F8491F901E059FD4FD491F901E65D7A
:10050000FD4FC491CC23A9F0162F81110E940A023D
:10051000EC2FF0E0EE0FFF1FE05FFD4FA591B491CF
:100520008FB7F894EC91111108C0D095DE23DC93BD
:100530008FBFDF91CF911F910895DE2BF8CFCF931E
:10054000DF9390E0FC01E059FD4F2491865D9D4FC3
:10055000FC0184918823D1F090E0880F991FFC0161
:10056000EA50FE4FA591B491FC01E05FFD4FC591AB
:10057000D49161110EC09FB7F8948C91E22FE09551
:100580008E238C932881E223E8839FBFDF91CF9154
:1005900008958FB7F894EC91E22BEC938FBFF6CFD0
:1005A0003FB7F8948091A4039091A503A091A6036E
:1005B000B091A70326B5A89B05C02F3F19F001965F
:1005C000A11DB11D3FBFBA2FA92F982F8827BC01AD
:1005D000CD01620F711D811D911D42E0660F771FD5
:1005E000881F991F4A95D1F708958F929F92AF92D5
:1005F000BF92CF92DF92EF92FF926B017C010E943B
:10060000D0024B015C01C114D104E104F104B9F042
:100610000E94D002681979098A099B09683E7340D3
:100620008105910580F321E0C21AD108E108F108A3
:1006300088EE880E83E0981EA11CB11CE4CFFF90C9
:10064000EF90DF90CF90BF90AF909F908F900895E4
:100650002FB7F8946091A0037091A1038091A20339
:100660009091A3032FBF0895E0919203F09193031B
:10067000309729F010929A031092990319940895D3
:10068000CF93DF93AC01E0919003F0919103309709
:10069000F1F090919C0380919B039817C0F090E03B
:1006A000292F30E02617370754F4D901A852BD4F3F
:1006B000240F351FE90128812C939F5FF1CF109201
:1006C0009C0360939B03CB01DF91CF911994DF9141
:1006D000CF910895AF92BF92CF92DF92EF92FF92A7
:1006E0000F931F93CF93DF936C017B018B01040F5A
:1006F000151FEB015E01AE18BF08C017D10759F0F6
:100700006991D601ED91FC910190F081E02DC60137
:100710001995892B79F7C501DF91CF911F910F9121
:10072000FF90EF90DF90CF90BF90AF900895FC01C5
:10073000538D448D252F30E0842F90E0821B930B46
:10074000541710F0CF96089501970895FC01918DEC
:10075000828D981761F0A28DAE0FBF2FB11D5D96EF
:100760008C91928D9F5F9F73928F90E008958FEF91
:100770009FEF0895FC01918D828D981731F0828D45
:10078000E80FF11D858D90E008958FEF9FEF08959C
:10079000FC01918D228D892F90E0805C9F4F821B00
:1007A00091098F739927089588EA95E00E94C803FC
:1007B00021E0892B09F420E0822F0895FC01A48D0B
:1007C000A80FB92FB11DA35ABF4F2C91848D90E073
:1007D00001968F739927848FA689B7892C93A08956
:1007E000B1898C91837080648C93938D848D9813E0
:1007F00006C00288F389E02D80818F7D8083089573
:10080000EF92FF920F931F93CF93DF93EC0181E060
:10081000888F9B8D8C8D98131AC0E889F989808107
:1008200085FF15C09FB7F894EE89FF896083E8893A
:10083000F98980818370806480839FBF81E090E02C
:10084000DF91CF911F910F91FF90EF900895F62EB9
:100850000B8D10E00F5F1F4F0F731127E02E8C8D53
:100860008E110CC00FB607FCFACFE889F989808198
:1008700085FFF5CFCE010E94DE03F1CFEB8DEC0FAB
:10088000FD2FF11DE35AFF4FF0829FB7F8940B8FB5
:10089000EA89FB8980818062CFCFCF93DF93EC011F
:1008A000888D8823B9F0AA89BB89E889F9898C9158
:1008B00085FD03C0808186FD0DC00FB607FCF7CF14
:1008C0008C9185FFF2CF808185FFEDCFCE010E9414
:1008D000DE03E9CFDF91CF91089580E090E0892B8E
:1008E00029F00E94D40381110E94000080E090E072
:1008F000892B49F080E090E0892B29F00E940000CC
:1009000081110E94000080E090E0892B49F080E096
:1009100090E0892B29F00E94000081110E940000C4
:1009200080E090E0892B49F080E090E0892B29F06D
:100930000E94000081110C9400000895DC0159967A
:10094000ED91FC913097B9F083899489A589B68996
:100950004285538564857585841B950BA60BB70B63
:10096000811520E89207A105B10538F08FEF9FE7C8
:10097000A0E0B0E0089590E080E00895DC01599691
:100980008D919C91009739F0DC01ED91FC910480F0
:10099000F581E02D199490E080E00895CF93DF93E6
:1009A0001F92CDB7DEB76983DC01ED91FC91028027
:1009B000F381E02D41E050E0BE016F5F7F4F19955C
:1009C0000F90DF91CF910895BC016E5F7F4FDC01E6
:1009D000ED91FC910190F081E02D40E0199591E0BE
:1009E000811190E0892F0895089561E0FC018481D0
:1009F0000E94710280918A03811110928A030895E6
:100A00008EBD00000DB407FEFDCF8EB508958FEFAB
:100A10000C9400050F931F93CF93DF93EC010E947A
:100A200028038B010E9407058F3F69F00E9428036D
:100A3000601B710B6C177D07A8F380E0DF91CF91ED
:100A40001F910F91089581E0F9CF8CBD9DBD089550
:100A5000DF92EF92FF920F931F93CF93DF937C016E
:100A6000062FD42E152F80E590E00E94250560E02A
:100A7000F70186850E94710282E10E940005CD2D5A
:100A8000D12F0C0F1D2F111DC017D10721F08991F7
:100A90000E940005F9CF61E0F7018685DF91CF91D3
:100AA0001F910F91FF90EF90DF900C947102CF9304
:100AB000DF93EC0180918A03811109C081E080936A
:100AC0008A0380914506909146060E94250560E0C4
:100AD0008C81DF91CF910C947102CF92DF92EF92D3
:100AE000FF920F931F93CF93DF93EC01162F6901B1
:100AF0007A018E81882389F08F8198859C012F5FF0
:100B00003F4F38872F838230924018F40E940705A8
:100B1000F3CFCE010E94F5041E82CE010E9457053C
:100B20008CE291E00E940A05812F80640E940005FA
:100B300008E110E0D701C601002E04C0B695A795C4
:100B4000979587950A94D2F70E94000508501109DD
:100B5000083F8FEF180771F78FEF0E94000510E034
:100B60000E9407058A8787FF04C01F3F11F01F5F9F
:100B7000F7CFDF91CF911F910F91FF90EF90DF9012
:100B8000CF900895AF92BF92CF92DF92EF92FF92F3
:100B90000F931F93CF93DF93EC016901C801820F7C
:100BA000931F8130924050F58E81882379F088819F
:100BB0009981AA81BB8184179507A607B70731F4ED
:100BC0008F819885C816D90608F042C0488359839A
:100BD0006A837B838B85833039F089E0440F551F0E
:100BE000661F771F8A95D1F79A01AB0161E1CE01AB
:100BF0000E946D05882389F083E08D83CE010E94D9
:100C0000F50480E0DF91CF911F910F91FF90EF905D
:100C1000DF90CF90BF90AF9008950E9428035B01B2
:100C20000E9407058A878F3F69F40E9428036A198A
:100C30007B096D327140A0F38FE08D83CE010E945D
:100C4000F504DCCF8E3F89F418861F8281E08E8305
:100C50008F8198858C159D0550F40E9407058F8122
:100C60009885019698878F83F3CF8DE0E6CF670153
:100C7000E00EF11E0E940705F60181936F01EE154B
:100C8000FF05C1F78F819885080F191F18870F83FB
:100C90008985882319F001151240A0F08E818823E0
:100CA00089F08F8198859C012F5F3F4F38872F8374
:100CB0008230924018F40E940705F3CFCE010E94C3
:100CC000F5041E8281E09ECFCF92DF92EF92FF92D9
:100CD0000F93CF93DF93EC01690182E14115510538
:100CE0006105710599F08B85833039F089E0440FF7
:100CF000551F661F771F8A95D1F79A01AB0168E1EE
:100D0000CE010E946D05882319F084E08D832DC0EB
:100D10008EEF0E94000576018EEFD81AF7018191BF
:100D20007F010E940005EC14FD04C1F78FEF0E94C3
:100D300000058FEF0E9400050E9407058A878F71CA
:100D4000853071F4011116C0CE010E94F50481E0D6
:100D5000DF91CF910F91FF90EF90DF90CF900895AA
:100D600081E18D83CE010E94F504CE010E94F5043D
:100D700080E0EECF88E592E00E940A05811102C072
:100D800085E1C4CF20E030E0A9016DE0CE010E94F2
:100D90006D05882311F084E1B9CF0E940705811108
:100DA000FACFD2CF0F9340918C0350918D03609175
:100DB0008E0370918F03411551056105710589F00E
:100DC000082F28EA33E090E080E00E946406882340
:100DD00049F010928C0310928D0310928E031092A2
:100DE0008F0381E00F9108950F93CF93C82F8091C7
:100DF0008B03811105C0C1E08C2FCF910F91089515
:100E00004091000250910102609102027091030230
:100E10000C2F28EA33E090E080E00E946406811104
:100E200002C0C0E0E9CFCC2331F381E00E94D206BA
:100E30008823B9F310928B03DFCF8F929F92AF92EA
:100E4000BF92EF92FF920F931F93CF934B015C01E0
:100E5000C42F8091000290910102A0910202B091F2
:100E6000030288159905AA05BB0541F181E00E949E
:100E7000F40681110BC080E0CF911F910F91FF907C
:100E8000EF90BF90AF909F908F90089588EAE82EE2
:100E900083E0F82E00E012E030E020E0B501A4018C
:100EA00090E080E00E94C205882329F3809200022E
:100EB00090920102A0920202B092030240918B0331
:100EC0004C2B40938B0381E0D7CF4F925F926F9270
:100ED0007F928F929F92AF92BF92CF92DF92EF92CA
:100EE000FF920F931F93CF93DF93EC014230510594
:100EF0006105710590F480E0DF91CF911F910F9112
:100F0000FF90EF90DF90CF90BF90AF909F908F9029
:100F10007F906F905F904F90089589859A85AB85FB
:100F2000BC850196A11DB11D84179507A607B707BB
:100F300010F3CB88DC88ED88FE888F89803109F03A
:100F400042C0BB27A72F962F852F480159012A01A0
:100F50003B01C80ED91EEA1EFB1E80910002909133
:100F60000102A0910202B0910302C816D906EA0656
:100F7000FB0699F58F898031C1F5B301A201552790
:100F800066277727440F551F48555C4FFA01918219
:100F9000808280918B03816080938B038A89823069
:100FA00080F08D819E81AF81B8858C0D9D1DAE1D19
:100FB000BF1D80938C0390938D03A0938E03B093F9
:100FC0008F0381E099CFDB01CA01E7E0B695A795D1
:100FD00097958795EA95D1F7B8CF40E0C701B6015C
:100FE0000E941D078111C6CF86CFB301A2014F77A2
:100FF000552766277727440F551F440F551F48551F
:101000005C4FFA0180829182A282B382C2CF8F921A
:101010009F92AF92BF92CF92DF92EF92FF920F9387
:101020001F93CF93DF93FC0181859285A385B485BF
:101030000196A11DB11D84179507A607B70770F487
:1010400080E0DF91CF911F910F91FF90EF90DF90A3
:10105000CF90BF90AF909F908F9008958388948891
:10106000A588B6888789803189F5BB27A72F962F59
:10107000852FE9016A017B018F01BC01CD01680D5B
:10108000791D8A1D9B1D8090000290900102A09006
:101090000202B090030286169706A806B90601F56B
:1010A000F8018789803111F5DD24EE24FF24F60153
:1010B000EE0FFF1FE855FC4F80819181B0E0A0E06A
:1010C00088839983AA83BB8381E0BBCFDB01CA01FC
:1010D000C7E0B695A79597958795CA95D1F7C9CFDB
:1010E00040E00E941D078111DBCFAACFE894C7F82A
:1010F000DD24EE24FF24F601EE0FFF1FEE0FFF1F8D
:10110000E855FC4F80819181A281B381BF70D8CF17
:101110002F923F924F925F926F927F928F929F9207
:10112000AF92BF92CF92DF92EF92FF920F931F93F5
:10113000CF93DF93EC014B018D81811115C08FEFAF
:101140009FEFDF91CF911F910F91FF90EF90DF9074
:10115000CF90BF90AF909F908F907F906F905F9057
:101160004F903F902F9008958C8180FFE8CF4B895E
:101170005C896D897E898A859B85AC85BD85412C7E
:10118000481759076A077B0711F044244394512CF0
:1011900052011E0126E0220E311CA114B10409F4F3
:1011A000B1C04A855B856C857D856A0181E0D82266
:1011B0008B8D9C8D8A019B01E9E0369527951795CB
:1011C0000795EA95D1F7ED81E230E1F5FC01628DFA
:1011D000738D848D958D600F711F821F931F612CFD
:1011E00022E0722E6C187D08A614B70408F43501AD
:1011F0002C8126FD04C06114F2E07F0671F4009199
:1012000000021091010220910202309103020617A0
:1012100017072807390709F053C040E00E941D074F
:10122000882309F48CCFC60188559C4FD4019C01BA
:10123000260D371DFC012E173F0709F45EC04191B2
:101240004D93F9CFFC0174807A947022C114D104BB
:1012500071F471100CC0452B462B472B39F58F8943
:10126000988DA98DBA8D8E839F83A887B987EB8DC2
:10127000FC8D6E817F818885998562507109810915
:101280009109258504C0660F771F881F991F2A952D
:10129000D2F70685178520893189600F711F821F5B
:1012A000931F670D711D811D911D99CF4E815F8127
:1012B0006885798591010E9407088111D8CF3FCFB9
:1012C000740183019601AB01BC0190E080E00E94B3
:1012D000C205882309F433CF860C971C8A859B8529
:1012E000AC85BD85860D971DA11DB11D8A879B8785
:1012F000AC87BD87A618B70850CF281B390B820EC4
:10130000931EECCFC2011DCFCF93DF931F92CDB7B9
:10131000DEB7FC01818D928D009769F0BE016F5F91
:101320007F4F0E948808019731F4898190E00F90E7
:10133000DF91CF9108958FEF9FEFF9CF8F929F921A
:10134000AF92BF92CF92DF92EF92FF920F931F93D3
:10135000CF93DF93EC018D8181110EC080E0DF918E
:10136000CF911F910F91FF90EF90DF90CF90BF90A2
:10137000AF909F908F9008950B891C892D893E898D
:10138000041715072607370748F34A015B01823027
:1013900031F48A869B86AC86BD8681E0E0CF8114DD
:1013A0009104A104B10449F41E821F821886198693
:1013B0001A861B861C861D86F0CF0A851B852C8508
:1013C0003D85EB8DFC8D858590E00996B901A801DE
:1013D0004150510961097109082E04C0769567953D
:1013E000579547950A94D2F775016401E1E0CE1A4A
:1013F000D108E108F10804C0F694E794D794C794A3
:101400008A95D2F7C416D506E606F70620F0012B1A
:10141000022B032B11F58F89988DA98DBA8D8E83A0
:101420009F83A887B9878E010A5F1F4FC114D1041B
:10143000E104F10409F4ADCF4E815F8168857985BF
:1014400098018B8D9C8D0E94070891E0C91AD108E4
:10145000E108F1088111EACF81CFC41AD50AE60A62
:10146000F70AE1CFEF92FF920F931F93CF93DF9391
:101470001F92CDB7DEB7FC01818D928D10E000E0A8
:101480000097D1F07F01BE016F5F7F4F0E948808F7
:101490000FEF1FEF019781F4098110E0F701818DB3
:1014A000928DFC01428553856485758541505109B3
:1014B000610971090E949E09C8010F90DF91CF91C7
:1014C0001F910F91FF90EF9008953F924F925F927E
:1014D0006F927F928F929F92AF92BF92CF92DF9244
:1014E000EF92FF920F931F93CF93DF93CDB7DEB7A9
:1014F0002C970FB6F894DEBF0FBECDBF5C01DC01A8
:101500005B968D909C905C9716964D905D906D903B
:101510007C901997411451046104710409F468C066
:10152000BFEF4B1A5B0A6B0A7B0A312CF4018185F1
:101530009285A385B4859C01AD012F5F3F4F4F4F2E
:101540005F4F29873A874B875C87730162011D8251
:101550001E821F821886F40181859285A385B48539
:101560002D813E814F815885281739074A075B072F
:1015700008F056C089859A85AB85BC858C159D057C
:10158000AE05BF0550F482E0C82ED12CE12CF12C21
:1015900092E0492E512C612C712C9E012F5F3F4F00
:1015A000B701A601C4010E9407088823C9F18981F7
:1015B0009A81AB81BC81892B8A2B8B2B09F1260167
:1015C00037019FEF491A590A690A790A2D813E812C
:1015D0004F8158852F5F3F4F4F4F5F4F2D833E8385
:1015E0004F8358873FEFC31AD30AE30AF30AB3CFF6
:1015F000F40140805180628073803324339496CF0D
:10160000C414D504E604F70409F70FEF1FEF2FEF1A
:101610003FE0B701A601C4010E946507811119C00E
:1016200080E02C960FB6F894DEBF0FBECDBFDF91E1
:10163000CF911F910F91FF90EF90DF90CF90BF90CF
:10164000AF909F908F907F906F905F904F903F9062
:101650000895D50116964D915D916D917C911997E4
:10166000411551056105710539F097018601C401E5
:101670000E9465078823A1F2D5011696CD92DD92CE
:10168000ED92FC921997332051F0D701C6010196D3
:10169000A11DB11DF40180839183A283B383F50161
:1016A0008789908DA18DB28D892B8A2B8B2B39F454
:1016B0008481C78AD08EE18EF28E80688483F501A2
:1016C00084818062848381E0ACCF1F93CF93DF93CA
:1016D000FC0125812223D1F1162FEC01848187FFA3
:1016E0002AC0668577858089918941E00E941D071F
:1016F000882361F1EA8980E2E89FF0011124E8552E
:10170000FC4F309719F18D81823040F48B899C8990
:10171000AD89BE89848F958FA68FB78F8F89988D5D
:10172000938F828F8F89988DA98DBA8DB58BA48B5D
:101730008C818F778C83111103C08C818F7E8C8379
:10174000812FDF91CF911F910C94F40680E0DF91FF
:10175000CF911F9108951F93CF93DF93EC018D815B
:10176000813031F090E080E0DF91CF911F910895BA
:101770008C8181FFF7CF82FD18C090E080E00E944D
:1017800057050E940705182F90E080E00E94F5049D
:101790001F3F41F78C8185FF1BC060E0CE010E9496
:1017A000650B8C818F7D8C83DDCF4B895C896D8946
:1017B0007E898A859B85AC85BD8584179507A6079C
:1017C000B707D9F2CE010E949E098111D6CFCACFA8
:1017D00040918C0350918D0360918E0370918F0323
:1017E000452B462B472B21F080E00E94D206BACF32
:1017F00080618C832A853B85317080E092E0821B7A
:10180000930BB2CFFC01818D928D009719F061E0AE
:101810000C94650B08952F923F924F925F926F92B6
:101820007F928F929F92AF92BF92CF92DF92EF9270
:10183000FF920F931F93CF93DF9300D01F921F92BD
:10184000CDB7DEB77C015B01342E5D83DC011596DC
:101850008C911597813009F0CCC014962C9021FE04
:10186000C8C022FCB2C0C32CDD8022947FE02722B6
:101870002094B22DB1702B2ED7011A964D915D9107
:101880006D917C911D97C114D10409F426C15B961A
:101890008D919C915C97FC0174807A948A019B01E4
:1018A00069E036952795179507956A95D1F77022C7
:1018B0008A011170711020C001151105E9F4169606
:1018C0004D915D916D917C9119974115510561057F
:1018D000710509F097C057968D919D910D90BC911F
:1018E000A02D0097A105B10509F0AEC0C7010E9467
:1018F000650A882309F47DC080E092E0801B910B8B
:1019000046018C159D0508F44C01D7015B964D915D
:101910005C915C9716968D919D910D90BC91A02D38
:101920000297A109B109FA01258504C0880F991F02
:10193000AA1FBB1F2A95D2F74685578560897189F2
:10194000840F951FA61FB71F9C01AD01270D311DE8
:10195000411D511D29013A01811432E0930609F01D
:1019600079C08091000290910102A0910202B09191
:10197000030284159505A605B70559F48FEF9FEF6F
:10198000DC018093000290930102A0930202B093C5
:101990000302022D9501B301A20190E080E00E94B4
:1019A0006406882331F19EEFB91AC818D908F701E7
:1019B00082859385A485B585880D991DA11DB11DCE
:1019C00082879387A487B58757CFF70143895489C6
:1019D0006589768982859385A485B58548175907D9
:1019E0006A077B0709F43FCFC7010E949E09811156
:1019F0003ACF81E090E0D70113969C938E93129793
:101A000080E007C09E012F5F3F4F0E9407088111B1
:101A100002C090E079C089819A81AB81BC81F701D5
:101A2000238D348DF901278948EF5FEF60E070E086
:101A3000203121F048EF5FEF6FEF7FE084179507CB
:101A4000A607B70708F052CFF70186839783A087D0
:101A5000B18752CF0115110599F5D7011A964D910D
:101A60005D916D917C911D9753968D919D910D90F7
:101A7000BC91A02D481759076A077B0708F181E040
:101A80000E94F406882309F4B4CF409200025092D9
:101A90000102609202027092030280918B038160C6
:101AA00080938B03C80188559C4FD5019C01280D5C
:101AB000391DFC012E173F0759F04D914193FACF84
:101AC00041E0C301B2010E941D078111EBCF91CF0C
:101AD000281B390BA20EB31E68CFF70183899489A6
:101AE000A589B68984179507A607B70738F48481B6
:101AF000438B548B658B768B80688483F70184815C
:101B000083FD1AC0832D9D810F900F900F900F9031
:101B10000F90DF91CF911F910F91FF90EF90DF9089
:101B2000CF90BF90AF909F908F907F906F905F907D
:101B30004F903F902F90089561E0C7010E94650B80
:101B4000882309F456CFDECFCF93DF931F92CDB712
:101B5000DEB7698341E050E0BE016F5F7F4F0E94B6
:101B60000B0C0F90DF91CF910895CF93DF93EC0191
:101B7000E98DFA8D309749F481E090E09B838A8368
:101B800090E080E0DF91CF91089513821282898DD9
:101B90009A8D0E940B0CE98DFA8D22813381232BC3
:101BA00059F7F0CF1F93CF93DF93EC01162F80E509
:101BB00090E00E94250560E08E850E947102812FD1
:101BC00080680E94000580E00E940005182F61E0F7
:101BD0008E850E947102812FDF91CF911F91089510
:101BE0000F931F93CF93DF93EC01062F142F80E503
:101BF00090E00E94250560E08E850E947102802F92
:101C00000E940005812F0E94000561E08E85DF9112
:101C1000CF911F910F910C947102CF92DF92EF92AE
:101C2000FF920F931F93CF93DF93EC016B01F42E80
:101C3000890140E062E00E94F00D44E06AE0CE01DC
:101C40000E94F00D40E864E1CE010E94F00DA60173
:101C50006F2DCE010E94280543E062E0CE010E9474
:101C6000F00D0E9428036B017C0129E5C20ED11CF6
:101C7000E11CF11C6AE0CE010E94D20D82FF1BC064
:101C800040E062E0CE010E94F00D64E4CE010E94CB
:101C9000D20DF801808362E4CE010E94D20DF801DA
:101CA000818380E0DF91CF911F910F91FF90EF90A2
:101CB000DF90CF9008950E9428036C157D058E0556
:101CC0009F05C0F283E0EECF089520911903260FFF
:101CD0003327331F21323105ECF420916203FC01DC
:101CE00090E080E0243069F082E00895A09119032B
:101CF0002191AC0147505D4FA40FB52FB11D2C931E
:101D00000196861798F380911903680F6093190361
:101D100080E0089581E008951092620381E080934D
:101D2000610310923C0361E084E10E94710261E072
:101D300085E10E947102E9EBF0E080818E7F808373
:101D400080818D7F808388E48093B80085E48093D0
:101D5000BC000895CF93DF9391E09093F80288231D
:101D6000B9F0C091B800D091BA008091BC008A7BD4
:101D70008093BC0060E084E10E94710260E085E134
:101D80000E9471020E948C0ED093BA00C093B800DA
:101D9000DF91CF9108950895E0919C0380919B037A
:101DA000E81730F4F0E0E852FD4F808190E00895AC
:101DB0008FEF9FEF089590919C0380919B032FEFED
:101DC0003FEF981748F4E92FF0E0E852FD4F2081EB
:101DD00030E09F5F90939C03C901089580919B031D
:101DE00090919C03891B990B0895CF92DF92EF92FB
:101DF000FF920F931F93CF93DF937C01CB018A0156
:101E000020916803222389F0EB016B01C40ED51EDB
:101E1000CC15DD0569F06991D701ED91FC91019038
:101E2000F081E02DC7011995F3CF642F0E94650E54
:101E3000C801DF91CF911F910F91FF90EF90DF903C
:101E4000CF900895CF93DF931F92CDB7DEB769830C
:101E5000209168032223F9F020919903203258F051
:101E600021E030E0FC013383228390E080E00F909A
:101E7000DF91CF91089580919A03E82FF0E0E75920
:101E8000FC4F998190838F5F80939A03809399038D
:101E900081E090E0ECCF61E0CE0101960E94650EFA
:101EA000F7CFCF92DF92EF92FF920F931F93CF93D2
:101EB000DF93FC01C48121E020936803C093890370
:101EC00010929A03109299038485682B80E996E01A
:101ED0000E94220FD0919903D13208F092C00E9443
:101EE000D0026B017C0180916203811165C082E0A8
:101EF0008093620381E0809361038FEF809360039E
:101F000010925F03D0935E03A9E6B3E0EEE3F3E043
:101F100080E0D81385C010923D0380913D03CC0F23
:101F2000C82BC0933D0380913C03813009F07CC0F5
:101F300010923C030E94D0026B017C0180913D0312
:101F40008093BB008091640390916503A091660328
:101F5000B0916703892B8A2B8B2B99F00E94D002BA
:101F6000009164031091650320916603309167032B
:101F70006C197D098E099F0906171707280739076D
:101F8000E0F18091BC0083FDD9CF85EC8093BC004B
:101F90000E94D0026B017C0180916203823009F4BF
:101FA00045C0809160038F3F61F180916003803272
:101FB00041F18091600325C0809164039091650395
:101FC000A0916603B0916703892B8A2B8B2B09F4B0
:101FD0008ACF0E94D0020091640310916503209182
:101FE0006603309167036C197D098E099F090617F6
:101FF00017072807390708F076CF809163030E94FE
:10200000AA0E10929A031092990310926803DF911E
:10201000CF911F910F91FF90EF90DF90CF90089597
:102020009D9191938F5F75CF85EEB0CF80916403C2
:1020300090916503A0916603B0916703892B8A2B69
:102040008B2B09F4A9CF0E94D00200916403109158
:10205000650320916603309167036C197D098E0931
:102060009F09061717072807390708F095CFC5CF2E
:1020700090E080E00895CF93DF93EC01888199810F
:10208000DC01ED91FC910190F081E02D19952A8100
:102090003B81820F931F9B838A83DF91CF910895A9
:1020A000982F80336CF08A3324F08F3524F08B37EF
:1020B00024F481E0089581341CF081E09B350CF01C
:1020C00080E00895CF93DF93EC0188819981DC0152
:1020D000ED91FC910280F381E02D19952A813B81DD
:1020E000820F931F9B838A83DF91CF9108958F92F4
:1020F0009F92AF92BF92CF92DF92EF92FF920F9397
:102100001F93CF93DF93CDB7DEB766970FB6F894E2
:10211000DEBF0FBECDBF6C018E01095E1F4F78017F
:102120008AE0882E912CA12CB12CCB01BA01A501FB
:1021300094010E943627942F852F605DF8016293E9
:102140008F01A901692F782F41155105610571058E
:1021500061F7A7014E1B5F0BBF01C6010E94621011
:1021600066960FB6F894DEBF0FBECDBFDF91CF915C
:102170001F910F91FF90EF90DF90CF90BF90AF90A5
:102180009F908F900895CF92DF92EF92FF920F93DE
:102190001F93CF93DF93EC018C85811130C00985AB
:1021A0001A850E942803D80118966D937D938D930C
:1021B0009C931B97D801ED91FC910284F385E02D4F
:1021C000C801199597FF25C00E942803F801C08413
:1021D000D184E284F3846C197D098E099F09C4803F
:1021E000D580E680F7806C157D058E059F0510F380
:1021F0008FEF9FEF97FD80E08B8781E08C878B8549
:10220000DF91CF911F910F91FF90EF90DF90CF90D2
:1022100008959927EFCF1F93CF93DF93EC01162FEB
:102220000E94C310811306C01C8681E0DF91CF910C
:102230001F91089580E0FACFCF93DF93EC01CE0198
:102240000E94C310803324F08A3324F41C86F7CF15
:102250008B32E1F393ED980F9230C0F38F7D85348C
:10226000A9F390E080E0DF91CF9108950F931F9341
:10227000CF93DF938C01EB018991882369F0C8012A
:102280000E94C310882379F0FE0131979081981342
:102290000DC0F8011486F0CF90E080E0DF91CF917F
:1022A0001F910F91089582E090E0F8CF83E090E0D5
:1022B000F5CF1F93CF93DF93EC010E94C310182F2B
:1022C0001C86CE010E94C3101C86181751F088236B
:1022D00071F08C35B1F7CE010E94C310882389F3C9
:1022E000EFCF90E080E0DF91CF911F91089582E0E1
:1022F00090E0F9CFCF93DF93EC01CE010E94C310A1
:102300008B304CF489305CF4882359F081E0888765
:1023100090E080E00BC08D3011F08032B9F71C8660
:10232000ECCF8885811105C081E090E0DF91CF91ED
:10233000089582E090E0FACFFF920F931F93CF931E
:10234000DF9305E010E0662301F1EC011C86FF2419
:10235000FA94F60E6F2DCE010E94CC118C01892BC0
:10236000A1F4CE010E947A118C01892B71F46DE5E4
:10237000CE010E940B11811108C06CE2CE010E94B7
:102380000B118111E7CF03E010E0C801DF91CF917D
:102390001F910F91FF9008951F93CF93DF93EC014E
:1023A000162F0E947A110097D1F5CE010E94C3101A
:1023B000863661F164F4873221F08B3589F0823200
:1023C00041F5CE01DF91CF911F910C9459118437C3
:1023D000A9F08B3761F08E36E1F46DE672E010C043
:1023E000612FCE01DF91CF911F910C949C11612F31
:1023F000CE01DF91CF911F910C94131262E672E02F
:10240000CE01DF91CF911F910C94361167E672E0F7
:10241000F7CFCE01DF91CF911F910C941C11DF916A
:10242000CF911F910895FF920F931F93CF93DF9346
:1024300005E010E0662399F1F62EEC011C860E945F
:102440007A118C01892B59F56DE7CE010E940B1191
:10245000811125C0FA94CE010E94C310873259F031
:10246000823249F0CE010E94C3100E94501088238E
:1024700049F01C86F7CFCE010E945911009711F048
:102480008C010DC0CE010E947A110097C9F76AE352
:10249000CE010E940B11811109C003E010E0C801B8
:1024A000DF91CF911F910F91FF9008956F2DCE0175
:1024B0000E94CC11009721F7CE010E947A1100975B
:1024C000F9F66DE7CE010E940B118111E8CF6CE2A5
:1024D000CE010E940B11882301F3CE010E947A11D4
:1024E000009709F4B8CFCCCFFC0124813581A90134
:1024F0004F5F5F4F868197814817590748F4828163
:10250000938155834483FC01E20FF31F6083089598
:102510000190F081E02D81E0808708959F92AF9235
:10252000BF92CF92DF92EF92FF920F931F93CF93C0
:10253000DF9300D01F921F92CDB7DEB78C010E94AF
:10254000C310D82ED8011C961C92F12CE12C60EF00
:10255000C62EC8010E94C310F8011486D81609F4CB
:10256000B4C0811113C082E090E00F900F900F90E3
:102570000F900F90DF91CF911F910F91FF90EF90EF
:10258000DF90CF90BF90AF909F9008958C3509F069
:102590009AC0C8010E94C310882329F3E2E7F2E041
:1025A000853709F084C0D8011C961C9254E0952E02
:1025B000B12CA12CC8010E94C3108823A1F2813440
:1025C00034F48053803130F083E090E0CECF8F7DC3
:1025D0008753F8CF44E0AA0CBB1C4A95E1F7A82A20
:1025E000F80114869A949110E5CFC501985D811584
:1025F000944020F47501F3E0FF22ABCFC5019C5D50
:1026000081159440A8F483E0B822B701762F66279D
:10261000770F770F6A297B2990E080E00196603878
:1026200071058105910540F4C8010E94741291CF93
:10263000B50190E080E0F3CF1982262F2F73206838
:102640002A8326E096958795779567952A95D1F701
:102650006032710580F4606C6B835E01A4E0AA0EA9
:10266000B11CD5016E915D01662309F472CFC801DA
:102670000E947412F6CF262F2F7320682B8386E0DA
:10268000769567958A95E1F76031710538F4606E4B
:102690006C835E01B5E0AB0EB11CE3CF60686C8368
:1026A000CD825E01E6E0AE0EB11CDBCF32969081AA
:1026B000992309F489CF8913F9CF8181882309F4FB
:1026C00083CFF8011486682FAFCF0190F081E02D01
:1026D0008085882319F084E090E047CF90E080E087
:1026E00044CFCF93FC0194819F779830E1F040F480
:1026F000992311F19630A9F0C1E08C2FCF91089564
:102700009A3089F09C30C1F7C1E020E030E0A901A7
:1027100060817181828193810E94E4258111EDCFD6
:102720000BC0C081EACFC1E080819181A281B381D9
:10273000892B8A2B8B2B09F7C0E0DFCFCF93DF9358
:10274000DC01EB01EC81FD818A819B810896E81711
:10275000F90740F481E08887F0E0E0E0CF01DF9105
:10276000CF9108953897FD83EC833097B9F3129693
:10277000CD91DC911397209791F0CF018C1B9D0B8D
:1027800023E0959587952A95E1F78D831396FC9321
:10279000EE9312971582148217821682DFCF11965C
:1027A000FC93EE93F3CFEF92FF920F931F93CF938F
:1027B000DF937C01DC0112962D913C911397ED91F2
:1027C000FC91AB01420F531FEF01C60FD71FC21779
:1027D000D307A0F4888181110BC0E901CF014C1708
:1027E0005D0751F00991DC011D91CD010117B9F38D
:1027F00081918111FDCFE8CF309751F4620F731FA3
:10280000CB010196F70193838283DB011C92F901CE
:10281000CF01DF91CF911F910F91FF90EF9008951D
:10282000FC012581222339F0F8E02F0290011124C8
:10283000820F931F089590E080E00895FC01892B9A
:1028400019F490E080E008958481982F9F7739F4FF
:102850008078806484831182108213821282848142
:1028600086FFEFCF80819181009719F4CF010C94FE
:102870009E1308954F925F926F927F928F929F92D4
:10288000AF92BF92CF92EF92FF920F931F93CF938D
:10289000DF93EC014B01642E59017C2C729480EF84
:1028A0007822F7018081780E40E062E0CE010E943C
:1028B000F00D4FE768E0CE010E94F00D40E864E1C2
:1028C000CE010E94F00DA401662DCE010E942805C4
:1028D000472D6AE1CE010E94F00D4CE062E0CE018E
:1028E0000E94F00D6AE1CE010E94D20D482F40688F
:1028F0006AE1CE010E94F00D0E9428032B013C01E9
:10290000F4E24F0E511C611C711C68E0CE010E9464
:10291000D20D982F907309F06CC080FF11C083E036
:10292000DF91CF911F910F91FF90EF90CF90BF90CB
:10293000AF909F908F907F906F905F904F90089591
:102940000E9428036415750586059705F0F2E7CF08
:1029500064E1CE010E94D20D982EF8018081891584
:1029600008F445C090829920B1F180E590E00E9482
:10297000250560E08E850E9471029A9482E90E948A
:102980000005CC2099F00FEF10E001C0000FCA94B1
:10299000EAF782E90E940005902F9095F5012081C9
:1029A00092238023982B9083CC24C394AC0CB11C2D
:1029B000C91440F482E90E940005F50181935F018A
:1029C000C394F6CF80E00E940005F501808361E0AA
:1029D0008E850E94710268E1CE010E94D20D87703F
:1029E000F701808382E083FC9BCF80E099CF84E075
:1029F00097CF6CE0CE010E94D20D882E837109F42E
:102A0000A7CF81E08DCFAF92BF92CF92EF92FF928E
:102A10000F931F93CF93DF9300D01F921F92CDB7D8
:102A2000DEB75C0182E08D8340E064E2C5010E9474
:102A3000F00D40E066E2C5010E94F00D46E268E458
:102A4000C5010E94F00D86E28B838D818230C8F132
:102A50006CE1C5010E94D20D482F4F776CE1C50192
:102A60000E94F00D87E08C83C12CCE0104967C017E
:102A70008E010B5F1F4F9E012F5F3F4F41E0BE0154
:102A80006D5F7F4FC5010E943A14982F811116C0C7
:102A90008D818230B1F48C81811113C081E00F905F
:102AA0000F900F900F900F90DF91CF911F910F918A
:102AB000FF90EF90CF90BF90AF90089581E092305B
:102AC00071F380E0ECCF2F923F924F925F926F9222
:102AD0007F928F929F92AF92BF92CF92DF92EF92AE
:102AE000FF920F931F93CF93DF93CDB7DEB72C9751
:102AF0000FB6F894DEBF0FBECDBF16E0413508F02B
:102B000049C1342E4B015C016CE10E94D20D482F6B
:102B10004F776CE1C5010E94F00D83E98983332072
:102B200029F081E0F4019081953008F480E044249C
:102B30004394512C952D990F990F990FD32CD91A95
:102B4000D7FCD12C32E0882319F098E89B8333E03E
:102B500021E09D2D977009F420E09D2D9595959588
:102B60009595290FC9F094E0811193E0291708F495
:102B7000922FE52DF0E03196E80DF91D232F4191BC
:102B8000A1E0B0E0AC0FBD1FA20FB11D4C932F5FB1
:102B9000422F431B491798F3882311F0F8E0DF0E0A
:102BA0008FE18D150CF081C090E79A838B819C8119
:102BB00089279D8189279E8189278F839E01285F90
:102BC0003F4F47E0BE016F5F7F4FC5010E940D0E72
:102BD000182F8111DFC01A86E3E0EB87DC86CE0177
:102BE00007963C0129E0222ECA844C2D4295407F55
:102BF0004C0D6AE1C5010E94F00DFE013A967F017D
:102C00008E01055F1F4F9301422DBE016F5F7F4F05
:102C1000C5010E943A14182F823009F065C06CE19A
:102C2000C5010E94D20D85FDB5C08F7109F480E207
:102C3000282F30E04D2DDD0C550B421753070CF0BB
:102C40009DC0D82EE82FE595E595E595EF5F982F87
:102C5000977081E009F480E0E80F81E090E08C0F4C
:102C60009D1F8E0F911DFC012150310927703327C4
:102C700081E090E002C0880F991F2A95E2F79C013D
:102C80008081822B80838CCF85E98983332031F04A
:102C900081E0F4019081983008F04CCF80E04ACF79
:102CA00087E9898336E0532EF9CF9D2D97709A8757
:102CB0008D2D8595859585958E5F282F2295207F72
:102CC000290F2A8321E0911101C020E0222E280E35
:102CD00066246394712C6C0E7D1E680E711C99E045
:102CE000981B9B87DC8680CF811154C080E2D82E50
:102CF0009C8590320CF458CF8B81883809F040C005
:102D000083E093E0E52DF0E03196E80DF91D980F92
:102D1000A1E0B0E0AC0FBD1FA80FB11D2C91219315
:102D20008F5F8913F5CF5B84E3E05E124DC08A8527
:102D300081114AC09E012D5F3F4F41E0B301C501A3
:102D40000E940D0E182F811125C09B81F3018181F6
:102D500098133CC09C818281981338C0808182FF87
:102D600012C04394F2E04F1609F48ECF83E0481668
:102D700009F496CF91E0491609F4CFCE15E00AC0C8
:102D800082E094E0BFCFF4018387842D880F480E42
:102D900043944082812F2C960FB6F894DEBF0FBE6D
:102DA000CDBFDF91CF911F910F91FF90EF90DF90FA
:102DB000CF90BF90AF909F908F907F906F905F90DB
:102DC0004F903F902F90089511E0E4CF17E0E2CFAD
:102DD0000F931F93CF938C01C62F0E94510F6C2F1E
:102DE0006460C8010E94510F6C2F6B7FC8010E9464
:102DF000510F83EC90E00197F1F7CF911F910F9164
:102E000008950F931F93CF93DF938C01D62FC42F78
:102E1000607F642B0E94E81680E1D89FB0011124E6
:102E20006C2BC801DF91CF911F910F910C94E81684
:102E300040E061E087EC96E00E9401178BE39FE1A0
:102E40000197F1F78091D006882331F040E060E8E7
:102E500087EC96E00C940117089541E00E94011759
:102E600081E090E008950F931F93CF93DF93EC01DF
:102E700088819981009759F02A813B81261737076D
:102E800030F081E0DF91CF911F910F9108958B0178
:102E90006F5F7F4F0E942629009759F0998388839E
:102EA0001B830A832C813D81232B59F7FC0110825F
:102EB000E8CF80E0E7CFCF93DF93EC018881998161
:102EC000009711F00E949D28198218821D821C8291
:102ED0001B821A82DF91CF910895FC01808191813C
:102EE000009711F00C949D280895EF92FF920F9394
:102EF0001F93CF93DF93EC01198218821B821A82F1
:102F00001D821C828617970719F1FB010081118130
:102F100001151105E9F0E480F580B7010E9433172F
:102F2000811109C0CE01DF91CF911F910F91FF90C8
:102F3000EF900C945B17FD82EC82B8018881998137
:102F4000DF91CF911F910F91FF90EF900C94102A79
:102F5000DF91CF911F910F91FF90EF900895FB01AA
:102F600001900020E9F73197AF01461B570BDC01B8
:102F7000ED91FC910280F381E02D199480919B03E7
:102F800090919C03891B990B181619062CF480E963
:102F900096E00E94DB0EF2CF6EE972E088EA95E0DF
:102FA0000C94AF1763E872E080E996E00C94AF17D9
:102FB000CF93DF936115710579F1EB01DC018D9100
:102FC0009C91009759F1DC011696ED91FC91DE0180
:102FD0000D900020E9F71197AD014C1B5D0B30E01F
:102FE00020E0309749F0DF010D900020E9F79D01C6
:102FF000215031092E1B3F0B2417350751F4DE01F8
:103000002C0F3D1F2A173B0749F05D914191541742
:10301000C9F30E941014D5CF90E080E0DF91CF91EA
:103020000895009729F0FC01248125FD0C94D81700
:1030300090E080E008954F925F926F927F928F921E
:103040009F92AF92BF92CF92DF92EF92FF920F9337
:103050001F93CF93DF93EC018B016A01B22E0E9484
:103060007A117C01892B09F0B9C0CE010E94C310EE
:10307000863609F427C20CF041C0873231F08B3517
:1030800009F448C0823209F02FC2C6010E94B20181
:10309000019709F0E3C1E881F981828193819B83E3
:1030A0008A838481958122813381821B930B9F8344
:1030B0008E831D821C82892B11F481E08087CE01D2
:1030C0000E948E127C01892B09F088C0CC80DD80A3
:1030D000B601888199810E94D313D80114962C914E
:1030E00014972078256014962C93149711969C932E
:1030F0008E931396DC92CE92129770C0843709F4A7
:10310000C0C18B3709F4A5C08E3609F0EDC16DE65C
:1031100072E0C5C1C6010E94B2014601019749F0A3
:10312000C114D10409F481C0D60114968C9186FF94
:103130007CC0F8018481807880648483118210824D
:1031400013821282BB2009F452C31C86CE010E9456
:103150007A117C01892B09F041C06DE5CE010E94F6
:103160000B1181113BC0C6010E94B2010197B9F059
:10317000C114D10471F0D60114968C91149786FF76
:1031800008C0ED91FC91309721F084818F774F0139
:1031900031F461E972E0C6010E9411184C01BA9441
:1031A0008114910469F1C4010E947113882341F1D3
:1031B0006D857E85C8010E949E13009709F4C4C0E6
:1031C0002B2DA401BC01CE010E941B18009729F4ED
:1031D000CE010E947A110097C1F07C01C701DF91F6
:1031E000CF911F910F91FF90EF90DF90CF90BF9004
:1031F000AF909F908F907F906F905F904F900895C9
:103200006B2DCE010E94CC11E1CF6DE5CE010E9465
:103210000B118111E3CF6CE2CE010E940B118111E1
:10322000BFCF83E0E82EF12CD9CF6B2DCE01DF91FB
:10323000CF911F910F91FF90EF90DF90CF90BF90B3
:10324000AF909F908F907F906F905F904F900C9475
:103250009C11C6010E94B2010197D9F0C114D1049A
:1032600021F0F601848185FD14C06B2DCE01DF9124
:10327000CF911F910F91FF90EF90DF90CF90BF9073
:10328000AF909F908F907F906F905F904F900C9435
:103290001312D80114968C9114978078806214963A
:1032A0008C93149711961C921E9213961C921E9248
:1032B0001297BB2009F49BC21C86CE010E947A1192
:1032C0007C01892B09F08ACF6DE7CE010E940B119A
:1032D000811184CF7724739466246A946B0CE881FF
:1032E000F981828193819B838A8384819581228164
:1032F0003381821B930B9F838E831D821C82892BBB
:1033000009F47086CE010E94C310873209F182321F
:10331000F9F0CE010E94C310F82E0E9450108823AD
:1033200009F47FCF1C866F2DCE010E947412CE014E
:103330000E94C310F82E0E9450108111F3CFE88133
:10334000F9818085882359F0B4E0EB2EF12C46CF2B
:10335000CE010E948E127C01892B09F03FCFCE0155
:103360000E947A117C01892B09F038CF6AE3CE01E3
:103370000E940B11882309F454CFEA81FB818C81D0
:103380009D81E80FF91F1082AA80BB80C6010E94B0
:10339000B2017601019789F0B501C6010E941118AA
:1033A0007C01009721F0FC0184818F7751F461E961
:1033B00072E0C6010E9411187C01E114F10409F4C5
:1033C00048C0C7010E947113882309F442C0B501A7
:1033D000C8010E94D817BC01892BB1F46C817D8192
:1033E000888199810E94D3134C016D857E85C80127
:1033F0000E949E13FC01892B09F4A6CF848180686A
:10340000848397828682BF01262DA701CE010E9468
:103410001B187C01892B09F0E1CECE010E947A11A4
:103420007C01892B09F0DACE6DE7CE010E940B11E9
:103430008111D4CE6CE2CE010E940B11882309F4D5
:10344000F0CECE010E947A117C01892B09F447CF7E
:10345000C5CE662DCE010E94CC11DBCFCE01DF910F
:10346000CF911F910F91FF90EF90DF90CF90BF9081
:10347000AF909F908F907F906F905F904F900C9443
:103480005911C6010E94B201019739F4F8018481F3
:1034900080788660848381E0808362E672E0CE017A
:1034A000DF91CF911F910F91FF90EF90DF90CF9020
:1034B000BF90AF909F908F907F906F905F904F9054
:1034C0000C943611C6010E94B201019751F4D80143
:1034D00014968C9114978078866014968C93149728
:1034E0001C9267E672E0DBCFC6010E94B201019731
:1034F00009F06AC1CE010E94C3105E01BFE0AB0EAD
:10350000B11CD12C9A2CCB2C803374F08A3374F4F8
:10351000EFE3DE1699F01C86D394D5018D935D01FF
:10352000CE010E94C310F0CF8B3291F393ED980F30
:10353000923070F3982F9F7D953451F3FE01ED0D7D
:10354000F11D17868F858B32E1F16096DD24D394CF
:103550008D3219F0C92DDC2DD12C888190ED980F7A
:103560009A3018F08E3209F05CCE60E070E0CB014A
:10357000FE012191A0ED8A2E820EB9E0B81518F156
:103580006A3929E97207820729E1920730F5AAE032
:10359000B0E09B01AC010E940827912CB12CA12C1A
:1035A0002401350140945094609470944616570657
:1035B0006806790690F0680D791D8A1D9B1DEF0144
:1035C000D7CF6096C9CF211108C0DD2089F16130C5
:1035D0007105810530E89307A0F0C12CEAE08E2E3A
:1035E000912CA12CB12C61157105F0E88F07910584
:1035F00068F1A50194010E943627CA01B901C3945C
:10360000F2CFD80114962C91149720782A60149642
:103610002C939B01AC0188279927DC01821B930B1B
:10362000A40BB50BF80180839183A283B383D6CD1D
:10363000D80114962C9114972078286014962C9316
:10364000F8016083718382839383C8CDDE01299161
:1036500030ED320F3A3010F4C394F8CF2E32D9F453
:10366000FD013196DF013196CC91C053CA3098F4F8
:103670006C3C2CEC72072CE08207910598F7AAE0CD
:10368000B0E09B01AC010E9408276C0F711D811DE9
:10369000911DCA94E7CF2C912F7DD0E0C0E0253456
:1036A00009F056C011962C9111972D32D1F5129632
:1036B000BB24B394FD01D0E0C0E02C2D0C2C000CF9
:1036C000330B5AE0952EDF01A19040ED4A0D4A30B0
:1036D000D0F59C9EA0019D9E500D1124CA2DAA0CD0
:1036E000DD0BE097C40FD51FA9014C0F5D1F4732BA
:1036F00051054CF3D80114968C91BB20C9F040E0E1
:1037000050E060E070E8D11003C040E050E0BA0142
:1037100080788C60F8018483408351836283738353
:103720005DCD2B3219F01196B12CC4CF1296FCCF7F
:1037300040E050E060E87FEFD110EACF40E050E099
:1037400060E87FE7E5CFBB2019F0D195C195D1099D
:103750002C91211166CDCC0DD11DC7FCDA950E94AC
:10376000E92534ECA32E31E0B32E1C161D063CF0E7
:10377000D195C195D1094CEAA42E41E0B42EC12CBB
:10378000209791F0C0FF0CC024E0C29EF0011124EC
:10379000EA0DFB1D25913591459154910E944A26D1
:1037A000D595C795C394ECCFD1109058D8011496F5
:1037B0002C91149720782C6014962C93F801608338
:1037C0007183828393830ACDCE01DF91CF911F91C4
:1037D0000F91FF90EF90DF90CF90BF90AF909F90B0
:1037E0008F907F906F905F904F900C941C1195E09C
:1037F000E92EF12CF3CCEF92FF920F931F93CF930E
:10380000DF93EC018C81982F9F7739F48078806268
:103810008C83198218821B821A828C8185FF1DC0BD
:1038200061157105D1F07A018B01CE010E94D81784
:10383000009761F4B701CE010E949E13009731F00A
:10384000FC0124812F77248317830683DF91CF9196
:103850001F910F91FF90EF90089590E080E0F6CFD8
:10386000FB0101900020E9F73197AF01461B570B90
:103870000C9462101F93CF93DF93E2E7F2E0128182
:10388000112379F0329621816213F9CFEC016CE5B6
:103890000E943B10612FCE01DF91CF911F910C94BC
:1038A0003B106111F9CF63E972E0DF91CF911F9175
:1038B0000C94301C0F931F93CF938C01C0E0F80140
:1038C0008481C81738F46AE972E0C8010E94301C8C
:1038D000CF5FF5CFCF911F910F9108952F923F9217
:1038E0004F925F926F927F928F929F92AF92BF9210
:1038F000CF92DF92EF92FF920F931F93CF93DF93BC
:10390000CDB7DEB76C970FB6F894DEBF0FBECDBF54
:10391000FC018B0194819F77963009F4D2C298F410
:103920009230D8F0C280D380A080B180943008F06B
:1039300093C2A601B501C8010E946210D801129677
:103940008D919C911EC29C3009F446C048F4983079
:1039500009F4AFC29A3009F495C26DE672E038C03E
:10396000903209F427C29034C1F7E080F18065EA13
:1039700072E0E114F10461F161EA72E0C8010E94B1
:10398000301CD80114968C9114978F5F14968C93E9
:10399000C8010E945A1CB801C7010E946E1CC701D1
:1039A0000E9410147C016DE972E0892B11F46EE91C
:1039B00072E0C8010E94301CE114F10449F7F801DB
:1039C000848181508483C8010E945A1C66EA72E097
:1039D000C8010E94301CB2CFC080D180E280F38049
:1039E000A7019601C701B6010E94E425882331F0A2
:1039F0006DE672E0C8010E94301CC0C120E030E0DA
:103A0000A901C701B6010E94E425882371F0A7012E
:103A10009601C701B6010E9461279B01AC01C70155
:103A2000B6010E94E425882319F320E030E0A901C3
:103A3000C701B6010E94E42587FF08C06DE2C801F6
:103A40000E943B10F7FAF094F7F8F09420E836E97A
:103A500048E15BE4C701B6010E94FC2787FD83C0F3
:103A600074E1872E912CE0E2AE2EB12C712C612CEA
:103A7000F401EC53FE4F2591359145915491C701C6
:103A8000B6010E94FC2787FD0FC0F401E455FE4FEC
:103A90002591359145915491C701B6010E944A265E
:103AA0006B017C016A0C7B1CB594A79424E0821AFC
:103AB00091083CEF83163FEF9306D1F68FEF8F8B83
:103AC00020E030E0A901C701B6010E94FC271816CA
:103AD0000CF051C02CEA35EC47E257E3C701B601C0
:103AE0000E94E42518160CF446C0AF89B4E0AB027E
:103AF000C0011124912C812CFC01E455FE4F1F01C3
:103B00009C012C533E4F29013F893F3F09F433C0AC
:103B1000F101E80DF91D659175918591949120E071
:103B200030E040E251E40E944A26A70196010E943B
:103B3000FC2718167CF4F201E80DF91D259135914A
:103B400045915491C701B6010E944A266B017C0140
:103B50006A187B08B594A7948F8981508F8B94E065
:103B6000891A9108D1CF50E2A52EB12C95E09F8BF8
:103B7000712C612CA5CFC701B6010E94CD274B0146
:103B80005C011B012C01A6E0AC8F80E492E4AFE065
:103B9000B0E0888F998FAA8FBB8F9C8D9F8BA92FA8
:103BA000A150AC8FBAE02B16310441045104C8F087
:103BB000688D798D8A8D9B8D2AE030E040E050E061
:103BC0000E943627288F398F4A8F5B8FC201B1013F
:103BD0002AE030E040E050E00E94362719012A0137
:103BE000DCCFC501B4010E94E9259B01AC01C701EE
:103BF000B6010E9460276B017C01688D798D8A8DEA
:103C00009B8D0E94E9259B01AC01C701B6010E9472
:103C10004A261B012C010E94CD276B017C010E94CA
:103C2000E9259B01AC01C201B1010E9460279B0103
:103C3000AC010E9461270E94CD27C60ED71EE81E48
:103C4000F91E888D998DAA8DBB8DC816D906EA06F6
:103C5000FB06C0F09FEF891A990AA90AB90A6114F4
:103C6000710439F1AAE08A169104A104B10408F1A3
:103C7000BFEF6B1A7B0AC12CD12C7601812C912CC1
:103C8000540183942AE0222E312C412C512CC7015F
:103C9000B601A20191010E943627672B682B692B80
:103CA00061F4EF891E164CF469017A01E150EF8B43
:103CB000EECFC12CD12C7601E5CFB501A401C8010E
:103CC0000E947710FF89FF2391F14E0121E1820EBE
:103CD000911CF88F54019AE0292E312C412C512C43
:103CE000388D3150388F3F3F69F0C701B601A201CE
:103CF00091010E943627605DD4016E934D016901E8
:103D00007A01EECFBF898B2F90E0BC016095709552
:103D1000F501E81BF90B31978EE280834427552784
:103D2000461B570B6A0D7B1DC8010E94621061146F
:103D3000710421F165E6C8010E943B10730177FE12
:103D400007C06DE2C8010E943B10F194E194F108B4
:103D5000FE0177969F018AE0C82ED12CC701B601DB
:103D60000E942227805D82937B01672BB9F7A9010E
:103D70004E1B5F0BBF01C8010E946210F8018281D7
:103D800093816C960FB6F894DEBF0FBECDBFDF9166
:103D9000CF911F910F91FF90EF90DF90CF90BF9048
:103DA000AF909F908F907F906F905F904F903F90DB
:103DB0002F900895E080F1806FEA72E0E114F10441
:103DC00009F418CE68EA72E0C8010E94301CF801BC
:103DD00084818F5F8483C8010E945A1CD701169684
:103DE000AC9016971796BC9062E2C8010E943B10F7
:103DF0006501F60161916F01662321F0C8010E94FF
:103E00003A1CF7CF62E2C8010E943B106CEA72E0F4
:103E1000C8010E94301CB801C7010E946E1CC70176
:103E20000E9410147C016DE972E0892B11F46EE997
:103E300072E0C8010E94301CE114F10461F6D8015F
:103E400014968C911497815014968C93C8010E94FB
:103E50005A1C60EB72E0CECD62E2C8010E943B10BA
:103E60007501CE0CDF1CCE14DF0439F0D7016D9143
:103E70007D01C8010E943A1CF6CF62E2C8010E948F
:103E80003B107CCFC080D180E280F380B701A601D7
:103E9000F7FE0BC06DE2C8010E943B104427552776
:103EA000BA014C195D096E097F09C8010E9477109B
:103EB00065CF4081518162817381C8010E94771072
:103EC0003DCD808162E672E0811194CD67E672E0BB
:103ED00091CD85ED8093BC00809164039091650342
:103EE000A0916603B09167030796A11DB11D23E061
:103EF000B695A795979587952A95D1F72091BC00FF
:103F000024FD03C010926203089540916403509110
:103F100065036091660370916703452B462B472B21
:103F200069F30097A105B10541F025E32A95F1F762
:103F300000000197A109B109E1CF809163030C94BE
:103F4000AA0EEF92FF920F931F93CF93DF93CDB7FB
:103F5000DEB7C95DD2400FB6F894DEBF0FBECDBF4D
:103F60000E942803C156DE4F19821882CF59D140D2
:103F7000CF55DE4F19821882C15AD140CD55DE4F40
:103F800019821882C35AD14028EE33E040E050E055
:103F90000E943627C9014AE08E010F5F1F4FB8010A
:103FA0000E94AF25F80101900020E9F731977F01C9
:103FB000E01AF10AB701CE0181569E4F0E943317D5
:103FC000811122C1CE0181569E4F0E945B17BE0116
:103FD00061567E4FC8010E947517ED80FE8089E012
:103FE000E80EF11CB701C8010E943317882309F4B9
:103FF0001BC129813A818D819E8162EB72E0820F23
:10400000931F0E94102AFE82ED82B801CE018C52CD
:104010009D4F0E947517C8010E946D17CE018156F1
:104020009E4F0E946D17C852DD4F48815981C85D6F
:10403000D240CC52DD4F68817981C45DD24088EA9C
:1040400095E00E946A036EE972E088EA95E00E94BA
:10405000AF178FE991E08C0F9D1F0E96C156DE4F72
:1040600099838883CF59D140CF55DE4F9983888378
:10407000C15AD14085E792E08C0F9D1FCD55DE4F90
:1040800099838883C35AD140CB55DE4F9983888367
:10409000C55AD140C955DE4F1882C75AD140C455C0
:1040A000DE4F1882CC5AD140AE0141565E4F6CEBC8
:1040B00072E0CA0109960E94FB1BBE0161567E4F49
:1040C0000E941E140097B1F0AE0141565E4F65ECA0
:1040D00072E00E94FB1BFC01892B61F084818078D7
:1040E0008460848388EC92E09183808384E090E014
:1040F00093838283CE010F969A8389839C838B83DB
:104100008FE991E08C0F9D1F9E838D8398878F830D
:1041100019861E868FE991E08C0F9D1F0996C45366
:10412000DD4F19830883CC5CD24028E0FE01E453C4
:10413000FD4FDE01AC53BD4F01900D922A95E1F782
:1041400028E0FE01EC53FD4FDE01AB58BD4F01905E
:104150000D922A95E1F7C358DD4F1882CD57D24012
:104160002CE936E0C258DD4F39832883CE57D24040
:10417000CF57DD4F1882C158D240CE57DD4F19833B
:104180000883C258D240AC012AE0BE01665F7F4F6F
:10419000CE018B589D4F0E941B1888EA95E0CB58A2
:1041A000DD4F99838883C557D240C958DD4F1982A6
:1041B0001882C757D240C758DD4F1882C957D2401E
:1041C000BE016B587D4FCE010A960E946E1C609115
:1041D0009D0370919E03072E000C880B990B0E9483
:1041E000F502CE018C529D4F0E946D17C752DD4FD4
:1041F0000FB6F894DEBF0FBECDBFDF91CF911F91F8
:104200000F91FF90EF900895CD55DE4FF982E8822F
:10421000C35AD140B801C156DE4F88819981CF5928
:10422000D1400E94102AD3CEC8010E945B17EDCE68
:104230001F920F920FB60F9211242F933F938F93DB
:104240009F93AF93BF938091A0039091A103A091FE
:10425000A203B091A30330919F0323E0230F2D37D6
:1042600058F50196A11DB11D20939F038093A003D3
:104270009093A103A093A203B093A3038091A403FE
:104280009091A503A091A603B091A7030196A11D4B
:10429000B11D8093A4039093A503A093A603B093AC
:1042A000A703BF91AF919F918F913F912F910F9055
:1042B0000FBE0F901F90189526E8230F0296A11DA0
:1042C000B11DD2CF1F920F920FB60F9211240BB6D1
:1042D0000F922F933F934F935F936F937F938F939F
:1042E0009F93AF93BF93EF93FF9388EA95E00E946B
:1042F000DE03FF91EF91BF91AF919F918F917F91DD
:104300006F915F914F913F912F910F900BBE0F9046
:104310000FBE0F901F9018951F920F920FB60F921D
:1043200011240BB60F922F938F939F93EF93FF93CC
:10433000E091B805F091B9058081E091BE05F0915A
:10434000BF0582FD1DC090818091C1058F5F8F7375
:104350002091C205821741F0E091C105F0E0E855D7
:10436000FA4F958F8093C105FF91EF919F918F91A7
:104370002F910F900BBE0F900FBE0F901F901895AE
:104380008081F2CF1F920F920FB60F9211240BB6BD
:104390000F922F933F934F935F936F937F938F93DE
:1043A0009F93AF93BF93EF93FF938091B900887F62
:1043B000803609F44DC008F040C0883209F4A9C025
:1043C00028F5803109F49DC0C8F4882309F4FBC0A6
:1043D000883009F496C0FF91EF91BF91AF919F9102
:1043E0008F917F916F915F914F913F912F910F909E
:1043F0000BBE0F900FBE0F901F901895883109F4D7
:1044000088C0803241F78093600314C0803409F47F
:104410009DC040F48033B9F38833E9F6809360039C
:1044200085ECB0C0803509F485C0883509F496C0A4
:10443000883489F60E94691FCECF883909F48CC070
:1044400038F5883729F050F4883611F0803719F69E
:1044500083E08093620310923B0357C0883809F4CD
:104460007BC0803919F0803809F0B5CF80913B03CB
:10447000803208F071C0E0913B0381E08E0F8093A1
:104480003B038091BB00F0E0E55EFC4F80833DC0C4
:10449000803B39F0E0F4803A09F479C0883A09F0B9
:1044A0009ACF84E08093620310921A03109219034A
:1044B000E0919703F0919803199580911903811168
:1044C0000FC081E0809319031092F90209C0803C6B
:1044D00009F4A6CF883C09F4A3CF883B09F07BCF31
:1044E000E0911A0381E08E0F80931A03F0E0E75009
:1044F000FD4F80818093BB0090911A038091190336
:1045000029C080913D038093BB0085EC8093BC0063
:1045100062CF90915F0380915E03981758F5E09108
:104520005F0381E08E0F80935F03F0E0E25CFC4F5D
:104530008081E9CFE0915F0381E08E0F80935F037C
:104540008091BB00F0E0E25CFC4F808390915F03C0
:1045500080915E039817C8F285E8D8CFE0915F0399
:1045600081E08E0F80935F038091BB00F0E0E25CFE
:10457000FC4F80838091610381115CCF81E0809347
:104580003C0384EA8093BC001092620324CF85EC44
:104590008093BC001092620380913B03803230F420
:1045A000E0913B03F0E0E55EFC4F108260913B033D
:1045B00070E0E0919503F09196038BE193E01995FB
:1045C00010923B0308CF1092600334CFE8EAF5E085
:1045D0001382128288EE93E0A0E0B0E0848395839A
:1045E000A683B7832EE032E03183208325EC30E0D0
:1045F0003587248724EC30E03787268720EC30E0AD
:10460000318B208B21EC30E0338B228B22EC30E09D
:10461000358B248B26EC30E0378B268B118E128E57
:10462000138E148EE5E4F6E020E520831182E7E4A2
:10463000F6E0158216821186138642E050E060E0B3
:1046400070E0448755876687778713A215A614A65E
:1046500020E232E033A722A717A6E0E9F6E01382B2
:10466000128284839583A683B7832CE232E0318360
:104670002083E7ECF6E0138212822AE532E03183F0
:10468000208311862FE3248320E1228722E02387E1
:104690001486E7EBF6E020E532E03183208329E061
:1046A000268728E02787ECE9F6E0138212828483CC
:1046B0009583A683B7838EE392E091838083128EE5
:1046C000118E14860895789484B5826084BD84B573
:1046D000816084BD85B5826085BD85B5816085BDFD
:1046E00080916E00816080936E00109281008091B5
:1046F000810082608093810080918100816080933D
:104700008100809180008160809380008091B10061
:1047100084608093B1008091B00081608093B0008C
:1047200080919100826080939100809191008160DE
:10473000809391008091900081608093900080919F
:10474000A10082608093A1008091A100816080938C
:10475000A1008091A00081608093A0008091210140
:1047600082608093210180912101816080932101E9
:104770008091200181608093200180917A00846083
:1047800080937A0080917A00826080937A00809191
:104790007A00816080937A0080917A0080688093AB
:1047A0007A001092C10010929C0310929B03109209
:1047B0009A03109299030E948C0E84E393E09093E5
:1047C00098038093970380E493E0909396038093FB
:1047D000950384E18093BA008EEB97E19093910367
:1047E0008093900382ED97E19093930380939203DB
:1047F000E091B805F091B90582E08083E091B405BD
:10480000F091B5051082E091B605F091B7058FECF7
:1048100080831092C005E091BC05F091BD0586E053
:104820008083E091BA05F091BB058081806180832F
:10483000E091BA05F091BB05808188608083E091AA
:10484000BA05F091BB05808180688083E091BA054C
:10485000F091BB0580818F7D8083CFB7F8948091E4
:104860009403811127C0EFE5F2E08491E5EAF2E0DC
:104870009491E82FF0E0EE0FFF1FEA50FE4FA59154
:10488000B491EC91E92321F461E085E30E94710287
:1048900061E085E30E949F028CB580618CBD8CB580
:1048A00080648CBD61E084E30E949F0261E083E349
:1048B0000E949F02809194038F5F80939403CFBFE7
:1048C00061E08091C5060E949F0261E08091C5066B
:1048D0000E9471028091C6068F3F09F429C160E0F1
:1048E0000E949F022091C60630E0F901EA54FD4F74
:1048F0008491F901E059FD4FD491F901E65DFD4F36
:10490000C491C11106C161E08091C6060E949F0258
:1049100060E08091C6060E94710283E090E00197FA
:10492000F1F761E08091C6060E94710262E370E0D7
:1049300080E090E00E94F50240E064E287EB96E0C0
:104940000E94F00D40E066E287EB96E00E94F00DD9
:1049500046E268E487EB96E00E94F00D40E864E5EB
:1049600087EB96E00E94F00D49EA66E587EB96E05A
:104970000E94F00D43E068E587EB96E00E94F00DA1
:1049800048EE6AE587EB96E00E94F00D40E46AE2AB
:1049900087EB96E00E94F00D4DE362E287EB96E034
:1049A0000E94F00D68E287EB96E00E94D20D982FEE
:1049B0009370933039F0482F436068E287EB96E0BC
:1049C0000E94F00D10929C0310929B0310929A0388
:1049D000109299030E948C0E84E393E090939803C5
:1049E0008093970380E493E09093960380939503DC
:1049F0001092CC068091D206823018F098E0909305
:104A0000CC068093CF0662E370E080E090E00E94E5
:104A1000F5026091D30687EC96E00E94510F68EE94
:104A200073E080E090E00E94F50260E387EC96E09E
:104A30000E94E816CBE4D6E4CE010197F1F760E3DB
:104A400087EC96E00E94E8162197F1F760E387EC87
:104A500096E00E94E81683E592E00197F1F760E2A4
:104A600087EC96E00E94E8166091CC06606240E018
:104A700087EC96E00E94011784E08093CD0640E029
:104A80006CE087EC96E00E9401170E94181782E004
:104A90008093CE0640E066E087EC96E00E94011726
:104AA00040E062E087EC96E00E9401178BE39FE113
:104AB0000197F1F788E08093D30660E087EC96E0F9
:104AC0000E94510F0E9418176DEC72E087EC96E07F
:104AD0000E94AF1760E082E00E949F0260E083E0E6
:104AE0000E949F0260E084E00E949F0260E085E0F7
:104AF0000E949F0260E086E00E949F0288EE93E0A1
:104B000090939E0380939D030E94A11F0E946D04B9
:104B1000FBCF81110E940A02EC2FF0E0EE0FFF1F85
:104B2000E452FE4FA591B491EC91ED2309F4EBCE44
:104B30004FE062E087EB96E00E94F00DC3E062E395
:104B400070E080E090E00E94F50262E087EB96E082
:104B50000E94D20D84FFF0CEC15089F7EDCEBB2765
:104B60004A3031F4992322F4BDE2909581959F4F0C
:104B70000C94BB25BB27FB015527AA27880F991F3B
:104B8000AA1FA41710F0A41B83955051B9F7A05D7C
:104B9000AA3308F0A95DA193009779F7B111B193F9
:104BA0001192CB010C94D425DC01FC01672F71918B
:104BB0007723E1F7329704C07C916D937083629103
:104BC000AE17BF07C8F308950E94262608F481E0B7
:104BD0000895E89409C097FB3EF4909580957095F0
:104BE00061957F4F8F4F9F4F9923A9F0F92F96E939
:104BF000BB279395F695879577956795B795F111AE
:104C0000F8CFFAF4BB0F11F460FF1BC06F5F7F4F4A
:104C10008F4F9F4F16C0882311F096E911C077235C
:104C200021F09EE8872F762F05C0662371F096E865
:104C3000862F70E060E02AF09A95660F771F881F34
:104C4000DAF7880F9695879597F90895990F0008D8
:104C5000550FAA0BE0E8FEEF16161706E807F9074E
:104C6000C0F012161306E407F50798F0621B730BE9
:104C7000840B950B39F40A2661F0232B242B252B6A
:104C800021F408950A2609F4A140A6958FEF811D0D
:104C9000811D08950E945D260C94CE260E94C02698
:104CA00038F00E94C72620F0952311F00C94B72607
:104CB0000C94BD2611240C9402270E94DF2670F369
:104CC000959FC1F3950F50E0551F629FF001729FB1
:104CD000BB27F00DB11D639FAA27F00DB11DAA1FC0
:104CE000649F6627B00DA11D661F829F2227B00D0D
:104CF000A11D621F739FB00DA11D621F839FA00D98
:104D0000611D221F749F3327A00D611D231F849FE7
:104D1000600D211D822F762F6A2F11249F5750403E
:104D20009AF0F1F088234AF0EE0FFF1FBB1F661FB9
:104D3000771F881F91505040A9F79E3F510580F082
:104D40000C94B7260C9402275F3FE4F3983ED4F30B
:104D5000869577956795B795F795E7959F5FC1F726
:104D6000FE2B880F911D9695879597F9089597F9D1
:104D70009F6780E870E060E008959FEF80EC089501
:104D800000240A941616170618060906089500242A
:104D90000A9412161306140605060895092E0394A4
:104DA000000C11F4882352F0BB0F40F4BF2B11F418
:104DB00060FF04C06F5F7F4F8F4F9F4F089557FD77
:104DC0009058440F551F59F05F3F71F04795880F79
:104DD00097FB991F61F09F3F79F087950895121610
:104DE00013061406551FF2CF4695F1DF08C01616BC
:104DF00017061806991FF1CF86957105610508946D
:104E00000895E894BB2766277727CB0197F9089583
:104E10000E941327A59F900DB49F900DA49F800D15
:104E2000911D11240895A29FB001B39FC001A39FBB
:104E3000700D811D1124911DB29F700D811D1124D3
:104E4000911D0895AA1BBB1B51E107C0AA1FBB1FE0
:104E5000A617B70710F0A61BB70B881F991F5A9506
:104E6000A9F780959095BC01CD010895A1E21A2E75
:104E7000AA1BBB1BFD010DC0AA1FBB1FEE1FFF1FFE
:104E8000A217B307E407F50720F0A21BB30BE40B4E
:104E9000F50B661F771F881F991F1A9469F7609595
:104EA0007095809590959B01AC01BD01CF0108954F
:104EB000EE0FFF1F881F8BBF0790F691E02D19940E
:104EC0005058BB27AA270E9478270C94CE260E9410
:104ED000C02638F00E94C72620F039F49F3F19F40D
:104EE00026F40C94BD260EF4E095E7FB0C94B7264F
:104EF000E92F0E94DF2658F3BA1762077307840769
:104F0000950720F079F4A6F50C9401270EF4E095AE
:104F10000B2EBA2FA02D0B01B90190010C01CA0173
:104F2000A0011124FF27591B99F0593F50F4503E1E
:104F300068F11A16F040A22F232F342F4427585F10
:104F4000F3CF469537952795A795F0405395C9F728
:104F50007EF41F16BA0B620B730B840BBAF09150E0
:104F6000A1F0FF0FBB1F661F771F881FC2F70EC07F
:104F7000BA0F621F731F841F48F487957795679552
:104F8000B795F7959E3F08F0B0CF9395880F08F03E
:104F90009927EE0F9795879508950E94E72688F048
:104FA0009F5798F0B92F9927B751B0F0E1F0660FED
:104FB000771F881F991F1AF0BA95C9F714C0B1302E
:104FC00091F00E940127B1E008950C940127672F0A
:104FD000782F8827B85F39F0B93FCCF3869577955D
:104FE0006795B395D9F73EF4909580957095619546
:104FF0007F4F8F4F9F4F08950E94262608F48FEF12
:1050000008950F931F93CF93DF938230910510F48F
:1050100082E090E0E091D606F091D70630E020E003
:10502000B0E0A0E0309799F42115310509F44AC0A9
:10503000281B390B24303105D8F58A819B816115F5
:10504000710589F1FB0193838283FE0111C04081C8
:1050500051810281138148175907E0F04817590719
:1050600099F4109761F012960C93129713961C9373
:105070003296CF01DF91CF911F910F910895009348
:10508000D6061093D706F4CF2115310551F04217FB
:10509000530738F0A901DB019A01BD01DF01F801D6
:1050A000C1CFEF01F9CF9093D7068093D606CDCF2D
:1050B000FE01E20FF31F819391932250310939834E
:1050C0002883D7CF2091D4063091D506232B41F4E5
:1050D00020910602309107023093D5062093D40622
:1050E00020910402309105022115310541F42DB7BC
:1050F0003EB74091080250910902241B350BE09104
:10510000D406F091D506E217F307A0F42E1B3F0B4F
:105110002817390778F0AC014E5F5F4F2417350729
:1051200048F04E0F5F1F5093D5064093D4068193ED
:1051300091939FCFF0E0E0E09CCFCF93DF93009777
:10514000E9F0FC01329713821282A091D606B09149
:10515000D706ED0130E020E01097A1F420813181E5
:10516000820F931F2091D4063091D5062817390756
:1051700009F061C0F093D506E093D406DF91CF919A
:105180000895EA01CE17DF07E8F54A815B819E01A9
:1051900041155105B1F7E901FB83EA834991599122
:1051A000C40FD51FEC17FD0761F480819181029631
:1051B000840F951FE90199838883828193819B8362
:1051C0008A83F0E0E0E012968D919C91139700970E
:1051D000B9F52D913C911197CD010296820F931F45
:1051E0002091D4063091D5062817390739F6309723
:1051F00051F51092D7061092D606B093D506A0931B
:10520000D406BCCFD383C28340815181840F951FC4
:10521000C817D90761F44E5F5F4F88819981480FA5
:10522000591F518340838A819B81938382832115F7
:10523000310509F0B0CFF093D706E093D6069ECFA4
:10524000FD01DC01C0CF13821282D7CF4F925F9253
:105250006F927F928F929F92AF92BF92CF92DF9286
:10526000EF92FF920F931F93CF93DF938C010097E0
:1052700099F4CB01DF91CF911F910F91FF90EF90A7
:10528000DF90CF90BF90AF909F908F907F906F9066
:105290005F904F900C940128FC01E60FF71F9C01D2
:1052A00022503109E217F30708F4AEC0D901CD91BD
:1052B000DC911197C617D70720F1C530D10578F0DA
:1052C000CE0104978617970750F0C61BD70B22977D
:1052D000C193D1936D937C93CF010E949D28C80107
:1052E000DF91CF911F910F91FF90EF90DF90CF90C2
:1052F000BF90AF909F908F907F906F905F904F90F6
:1053000008955B01AC1ABD0A4C018C0E9D1EA09144
:10531000D606B091D706512C412CF12CE12C1097D8
:1053200031F58091D4069091D5068815990509F03C
:105330005CC04616570608F058C080910402909150
:105340000502009741F48DB79EB740910802509135
:105350000902841B950BE817F90708F055C0F09374
:10536000D506E093D406F90171836083B8CF8D919F
:105370009C91119712966C90129713967C901397AC
:10538000A815B90559F56C0142E0C40ED11CCA1428
:10539000DB0420F1AC014A195B09DA01129615977A
:1053A00080F06282738251834083D9016D937C9334
:1053B000E114F10471F0D7011396FC93EE93129768
:1053C0008ECF22968C0F9D1FF90191838083F3016C
:1053D000EFCFF093D706E093D60681CF4816590653
:1053E00008F42C017D01D3019ACFCB010E94012842
:1053F0007C01009749F0AE01B8010E94072AC8015C
:105400000E949D2887016BCF10E000E068CFFB0170
:10541000DC0102C001900D9241505040D8F7089530
:10542000FB01DC0101900D920020E1F70895F89452
:02543000FFCFAC
:10543200FFFFFFFF0000D80680000000000000040C
:105442006A0397034D04C803A603BA0300000000D1
:10545200A40D6A03AB0B640E00000000220FF50ED0
:105462003810CB0EEE0EDB0ECC0E00000000CE0488
:10547200B50DBE04020C9E048409320A000000002D
:1054820063150315E404000000002D176A033810A9
:10549200640E747275650066616C7365006E756C7E
:1054A2006C002F2F22225C5C6208660C6E0A720D61
:1054B20074090048656C6C6F204E6F64654D4355EE
:1054C200002A005C7530303030002020002C0D0A9C
:1054D200005B0D0A005B5D007B0D0A003A20007B39
:1054E2007D0020536567756E646F73006D69656D2D
:1054F20062726F73006964003132333400436C7539
:08550200622045784465760043
:00000001FF
